:020000040000FA
:020000000528D1
:040002000034003492
:06000A00831603178801B4
:1000100089018316031388018316031309148312BD
:100020000313A00183120313880183120313200812
:100030008312031388008312031309181B28D72087
:100040008312031309181B2883120313A101D7205D
:1000500083120313A10A14302102031938288312D2
:100060000313091C2728D72083120313A00A15287D
:1000700083120313091C3828D7208312031303307B
:10008000A7005B200318CB2883120313A70B41287A
:100090000330A70070200318CB2883120313A70B8B
:1000A0004A280330A70096200318CB288312031395
:1000B000A70B532838280310831203130130A5001F
:1000C0002508831203138800E220BE2003180800CD
:1000D000031083120313A50D031C602803100800EE
:1000E0000310831203130130A500A6012508831213
:1000F00003138800E220BE200318080083120313B4
:1001000026188E28031083120313A50D031C7628CE
:100110004030A50083120313A6097628031083122A
:100120000313A50C031C7628031008000310831288
:100130000313A5010310A50D25142508831203132D
:100140008800ED20BE200318080083120313250841
:10015000FF3A031D9A28031083120313A50C2508E8
:10016000831203138800ED20BE20031808008312B9
:1001700003132508031DAB28031008008312031383
:100180000918C928D720831203130918C928031492
:1001900008000310080083120313091CCB28D72082
:1001A0008312031320088312031388001528831277
:1001B00003136430A200A630A300A30BDD28A20B1A
:1001C000DB28080083120313FF30A200FF30A300D6
:1001D000A30BE828A20BE628080083120313FA30C9
:1001E000A2001030A3000730A400A40BF528A30B35
:0801F000F328A20BF12808001E
:02400E00E120AF
:02401000FF3E71
:00000001FF
