:020000040000FA
:020000000528D1
:040002000034003492
:06000A00831603178801B4
:1000100089018316031386018316031307108710C3
:100020008316031388018316031309148312031321
:1000300007148714831203138601831203138801A4
:1000400083120313A001A101A201592083120313FB
:1000500009182528922083120313091825283B200C
:10006000592083120313091C302892208312031392
:10007000091C3028252883120313A00A64302002AB
:10008000031D4328A0012008831203138800492080
:100090000800831203132008A300A2010A302302E0
:1000A000031C56280A30A302A20A4E282308A100E6
:1000B0000800831203130714871483120313210803
:1000C0007C208312031386008312031307108720FA
:1000D00083120313071487148312031322087C204E
:1000E0008312031386008312031387108720831261
:1000F000031307148714080082077E341234BC34BB
:10010000B634D234E634EE343234FE34F63483126C
:1001100003130230A400FA30A500A50B8D28A40B10
:100120008B280800831203130230A6005920831283
:080130000313A60B962808003A
:02400E00E120AF
:02401000FF3E71
:00000001FF
